{
  "contractName": "SocialIdentityLinker",
  "abi": [
    {
      "constant": true,
      "inputs": [
        {
          "name": "",
          "type": "address"
        }
      ],
      "name": "payEthIndex",
      "outputs": [
        {
          "name": "",
          "type": "uint256"
        }
      ],
      "payable": false,
      "stateMutability": "view",
      "type": "function"
    },
    {
      "constant": false,
      "inputs": [
        {
          "name": "myid",
          "type": "bytes32"
        },
        {
          "name": "result",
          "type": "string"
        }
      ],
      "name": "__callback",
      "outputs": [],
      "payable": false,
      "stateMutability": "nonpayable",
      "type": "function"
    },
    {
      "constant": false,
      "inputs": [
        {
          "name": "myid",
          "type": "bytes32"
        },
        {
          "name": "result",
          "type": "string"
        },
        {
          "name": "proof",
          "type": "bytes"
        }
      ],
      "name": "__callback",
      "outputs": [],
      "payable": false,
      "stateMutability": "nonpayable",
      "type": "function"
    },
    {
      "constant": true,
      "inputs": [
        {
          "name": "",
          "type": "uint256"
        }
      ],
      "name": "facebookIdentity",
      "outputs": [
        {
          "name": "",
          "type": "address"
        }
      ],
      "payable": false,
      "stateMutability": "view",
      "type": "function"
    },
    {
      "constant": false,
      "inputs": [
        {
          "name": "id",
          "type": "uint256"
        }
      ],
      "name": "payEth",
      "outputs": [],
      "payable": true,
      "stateMutability": "payable",
      "type": "function"
    },
    {
      "constant": true,
      "inputs": [],
      "name": "owner",
      "outputs": [
        {
          "name": "",
          "type": "address"
        }
      ],
      "payable": false,
      "stateMutability": "view",
      "type": "function"
    },
    {
      "constant": true,
      "inputs": [
        {
          "name": "",
          "type": "address"
        }
      ],
      "name": "requestEthIndex",
      "outputs": [
        {
          "name": "",
          "type": "uint256"
        }
      ],
      "payable": false,
      "stateMutability": "view",
      "type": "function"
    },
    {
      "constant": true,
      "inputs": [
        {
          "name": "",
          "type": "address"
        },
        {
          "name": "",
          "type": "uint256"
        }
      ],
      "name": "payEthStruct",
      "outputs": [
        {
          "name": "_address",
          "type": "address"
        },
        {
          "name": "_amount",
          "type": "uint256"
        },
        {
          "name": "_description",
          "type": "string"
        }
      ],
      "payable": false,
      "stateMutability": "view",
      "type": "function"
    },
    {
      "constant": true,
      "inputs": [
        {
          "name": "",
          "type": "address"
        },
        {
          "name": "",
          "type": "uint256"
        }
      ],
      "name": "requestEthStruct",
      "outputs": [
        {
          "name": "_address",
          "type": "address"
        },
        {
          "name": "_amount",
          "type": "uint256"
        },
        {
          "name": "_description",
          "type": "string"
        }
      ],
      "payable": false,
      "stateMutability": "view",
      "type": "function"
    },
    {
      "constant": true,
      "inputs": [],
      "name": "totalIdentities",
      "outputs": [
        {
          "name": "",
          "type": "uint256"
        }
      ],
      "payable": false,
      "stateMutability": "view",
      "type": "function"
    },
    {
      "constant": false,
      "inputs": [
        {
          "name": "_requestee",
          "type": "address"
        },
        {
          "name": "_amount",
          "type": "uint256"
        },
        {
          "name": "_description",
          "type": "string"
        }
      ],
      "name": "requestEth",
      "outputs": [],
      "payable": false,
      "stateMutability": "nonpayable",
      "type": "function"
    },
    {
      "constant": false,
      "inputs": [
        {
          "name": "facebookId",
          "type": "uint256"
        },
        {
          "name": "facebookAccessToken",
          "type": "string"
        }
      ],
      "name": "setIdentity",
      "outputs": [],
      "payable": true,
      "stateMutability": "payable",
      "type": "function"
    },
    {
      "inputs": [],
      "payable": false,
      "stateMutability": "nonpayable",
      "type": "constructor"
    },
    {
      "anonymous": false,
      "inputs": [
        {
          "indexed": false,
          "name": "facebookId",
          "type": "uint256"
        },
        {
          "indexed": false,
          "name": "addr",
          "type": "address"
        }
      ],
      "name": "EventSetIdentity",
      "type": "event"
    },
    {
      "anonymous": false,
      "inputs": [
        {
          "indexed": false,
          "name": "description",
          "type": "string"
        }
      ],
      "name": "newOraclizeQuery",
      "type": "event"
    },
    {
      "anonymous": false,
      "inputs": [
        {
          "indexed": false,
          "name": "message",
          "type": "string"
        }
      ],
      "name": "Hello",
      "type": "event"
    }
  ],
  "bytecode": "0x6060604052341561000f57600080fd5b33600560006101000a81548173ffffffffffffffffffffffffffffffffffffffff021916908373ffffffffffffffffffffffffffffffffffffffff160217905550736f485c8bf6fc43ea212e93bbf8ce046c7f1cb4756000806101000a81548173ffffffffffffffffffffffffffffffffffffffff021916908373ffffffffffffffffffffffffffffffffffffffff16021790555060006006819055507fe762c7c6ad44bf64dd9f998228fe1bf5218e470864dcfff5544c541c5b6c649d60405180806020018281038252600d8152602001807f48656c6c6f2c20576f726c64210000000000000000000000000000000000000081525060200191505060405180910390a16127f8806101236000396000f3006060604052600436106100ba576000357c0100000000000000000000000000000000000000000000000000000000900463ffffffff168063263ad779146100bf57806327dc297e1461010c57806338bbfa5014610176578063498b6a3c146102235780638caa7297146102865780638da5cb5b1461029e5780639970c8fb146102f3578063a64160c514610340578063ddda46f714610452578063f5c5987b14610564578063f6bba2771461058d578063fa7f396f14610612575b600080fd5b34156100ca57600080fd5b6100f6600480803573ffffffffffffffffffffffffffffffffffffffff1690602001909190505061066d565b6040518082815260200191505060405180910390f35b341561011757600080fd5b61017460048080356000191690602001909190803590602001908201803590602001908080601f01602080910402602001604051908101604052809392919081815260200183838082843782019150505050505091905050610685565b005b341561018157600080fd5b61022160048080356000191690602001909190803590602001908201803590602001908080601f0160208091040260200160405190810160405280939291908181526020018383808284378201915050505050509190803590602001908201803590602001908080601f01602080910402602001604051908101604052809392919081815260200183838082843782019150505050505091905050610886565b005b341561022e57600080fd5b610244600480803590602001909190505061088b565b604051808273ffffffffffffffffffffffffffffffffffffffff1673ffffffffffffffffffffffffffffffffffffffff16815260200191505060405180910390f35b61029c60048080359060200190919050506108be565b005b34156102a957600080fd5b6102b1610b6c565b604051808273ffffffffffffffffffffffffffffffffffffffff1673ffffffffffffffffffffffffffffffffffffffff16815260200191505060405180910390f35b34156102fe57600080fd5b61032a600480803573ffffffffffffffffffffffffffffffffffffffff16906020019091905050610b92565b6040518082815260200191505060405180910390f35b341561034b57600080fd5b610380600480803573ffffffffffffffffffffffffffffffffffffffff16906020019091908035906020019091905050610baa565b604051808473ffffffffffffffffffffffffffffffffffffffff1673ffffffffffffffffffffffffffffffffffffffff168152602001838152602001806020018281038252838181546001816001161561010002031660029004815260200191508054600181600116156101000203166002900480156104415780601f1061041657610100808354040283529160200191610441565b820191906000526020600020905b81548152906001019060200180831161042457829003601f168201915b505094505050505060405180910390f35b341561045d57600080fd5b610492600480803573ffffffffffffffffffffffffffffffffffffffff16906020019091908035906020019091905050610c0f565b604051808473ffffffffffffffffffffffffffffffffffffffff1673ffffffffffffffffffffffffffffffffffffffff168152602001838152602001806020018281038252838181546001816001161561010002031660029004815260200191508054600181600116156101000203166002900480156105535780601f1061052857610100808354040283529160200191610553565b820191906000526020600020905b81548152906001019060200180831161053657829003601f168201915b505094505050505060405180910390f35b341561056f57600080fd5b610577610c74565b6040518082815260200191505060405180910390f35b341561059857600080fd5b610610600480803573ffffffffffffffffffffffffffffffffffffffff1690602001909190803590602001909190803590602001908201803590602001908080601f01602080910402602001604051908101604052809392919081815260200183838082843782019150505050505091905050610c7a565b005b61066b600480803590602001909190803590602001908201803590602001908080601f01602080910402602001604051908101604052809392919081815260200183838082843782019150505050505091905050610fce565b005b600b6020528060005260406000206000915090505481565b6000806106906113e8565b73ffffffffffffffffffffffffffffffffffffffff163373ffffffffffffffffffffffffffffffffffffffff161415156106c957600080fd5b600060086000866000191660001916815260200190815260200160002060009054906101000a900473ffffffffffffffffffffffffffffffffffffffff1673ffffffffffffffffffffffffffffffffffffffff161415151561072a57600080fd5b610733836115ff565b915060086000856000191660001916815260200190815260200160002060009054906101000a900473ffffffffffffffffffffffffffffffffffffffff169050806007600084815260200190815260200160002060006101000a81548173ffffffffffffffffffffffffffffffffffffffff021916908373ffffffffffffffffffffffffffffffffffffffff16021790555060086000856000191660001916815260200190815260200160002060006101000a81549073ffffffffffffffffffffffffffffffffffffffff02191690557feacb48bed29981d60dec49ca5fa22cf84a6a1de602f5edf7f8b79b1030c5eb158282604051808381526020018273ffffffffffffffffffffffffffffffffffffffff1673ffffffffffffffffffffffffffffffffffffffff1681526020019250505060405180910390a160066000815480929190600101919050555050505050565b505050565b60076020528060005260406000206000915054906101000a900473ffffffffffffffffffffffffffffffffffffffff1681565b6000600c60003373ffffffffffffffffffffffffffffffffffffffff1673ffffffffffffffffffffffffffffffffffffffff1681526020019081526020016000208281548110151561090c57fe5b906000526020600020906003020160000160009054906101000a900473ffffffffffffffffffffffffffffffffffffffff16905034600c60003373ffffffffffffffffffffffffffffffffffffffff1673ffffffffffffffffffffffffffffffffffffffff1681526020019081526020016000208381548110151561098d57fe5b9060005260206000209060030201600101541415156109ab57600080fd5b3373ffffffffffffffffffffffffffffffffffffffff16600a60008373ffffffffffffffffffffffffffffffffffffffff1673ffffffffffffffffffffffffffffffffffffffff16815260200190815260200160002083815481101515610a0e57fe5b906000526020600020906003020160000160009054906101000a900473ffffffffffffffffffffffffffffffffffffffff1673ffffffffffffffffffffffffffffffffffffffff16141515610a6257600080fd5b8073ffffffffffffffffffffffffffffffffffffffff166108fc349081150290604051600060405180830381858888f193505050501515610aa257600080fd5b6000600a60008373ffffffffffffffffffffffffffffffffffffffff1673ffffffffffffffffffffffffffffffffffffffff16815260200190815260200160002083815481101515610af057fe5b9060005260206000209060030201600101819055506000600c60003373ffffffffffffffffffffffffffffffffffffffff1673ffffffffffffffffffffffffffffffffffffffff16815260200190815260200160002083815481101515610b5357fe5b9060005260206000209060030201600101819055505050565b600560009054906101000a900473ffffffffffffffffffffffffffffffffffffffff1681565b60096020528060005260406000206000915090505481565b600c60205281600052604060002081815481101515610bc557fe5b9060005260206000209060030201600091509150508060000160009054906101000a900473ffffffffffffffffffffffffffffffffffffffff169080600101549080600201905083565b600a60205281600052604060002081815481101515610c2a57fe5b9060005260206000209060030201600091509150508060000160009054906101000a900473ffffffffffffffffffffffffffffffffffffffff169080600101549080600201905083565b60065481565b6000838160000160006101000a81548173ffffffffffffffffffffffffffffffffffffffff021916908373ffffffffffffffffffffffffffffffffffffffff16021790555082816001018190555081816002019080519060200190610ce0929190612586565b50600a60003373ffffffffffffffffffffffffffffffffffffffff1673ffffffffffffffffffffffffffffffffffffffff1681526020019081526020016000208054806001018281610d329190612606565b916000526020600020906003020160008390919091506000820160009054906101000a900473ffffffffffffffffffffffffffffffffffffffff168160000160006101000a81548173ffffffffffffffffffffffffffffffffffffffff021916908373ffffffffffffffffffffffffffffffffffffffff1602179055506001820154816001015560028201816002019080546001816001161561010002031660029004610de0929190612638565b50505050338160000160006101000a81548173ffffffffffffffffffffffffffffffffffffffff021916908373ffffffffffffffffffffffffffffffffffffffff160217905550600c60008573ffffffffffffffffffffffffffffffffffffffff1673ffffffffffffffffffffffffffffffffffffffff1681526020019081526020016000208054806001018281610e789190612606565b916000526020600020906003020160008390919091506000820160009054906101000a900473ffffffffffffffffffffffffffffffffffffffff168160000160006101000a81548173ffffffffffffffffffffffffffffffffffffffff021916908373ffffffffffffffffffffffffffffffffffffffff1602179055506001820154816001015560028201816002019080546001816001161561010002031660029004610f26929190612638565b50505050600960003373ffffffffffffffffffffffffffffffffffffffff1673ffffffffffffffffffffffffffffffffffffffff16815260200190815260200160002060008154809291906001019190505550600b60008573ffffffffffffffffffffffffffffffffffffffff1673ffffffffffffffffffffffffffffffffffffffff1681526020019081526020016000206000815480929190600101919050555050505050565b610fd66126bf565b6000336007600086815260200190815260200160002060006101000a81548173ffffffffffffffffffffffffffffffffffffffff021916908373ffffffffffffffffffffffffffffffffffffffff1602179055506110a961103684611613565b61109b606060405190810160405280603a81526020017f6a736f6e2868747470733a2f2f67726170682e66616365626f6f6b2e636f6d2f81526020017f6d653f6669656c64733d6964266163636573735f746f6b656e3d000000000000815250611613565b61164190919063ffffffff16565b91506111036110ec6040805190810160405280600481526020017f292e696400000000000000000000000000000000000000000000000000000000815250611613565b6110f584611613565b61164190919063ffffffff16565b91507fe762c7c6ad44bf64dd9f998228fe1bf5218e470864dcfff5544c541c5b6c649d826040518080602001828103825283818151815260200191508051906020019080838360005b8381101561116757808201518184015260208101905061114c565b50505050905090810190601f1680156111945780820380516001836020036101000a031916815260200191505b509250505060405180910390a13073ffffffffffffffffffffffffffffffffffffffff16316111f76040805190810160405280600381526020017f55524c00000000000000000000000000000000000000000000000000000000008152506116bf565b11156112b6577f46cb989ef9cef13e930e3b7f286225a086e716a90d63e0b7da85d310a9db0c9a60405180806020018281038252604b8152602001807f4f7261636c697a6520717565727920776173204e4f542073656e742c20706c6581526020017f6173652061646420736f6d652045544820746f20636f76657220666f7220746881526020017f652071756572792066656500000000000000000000000000000000000000000081525060600191505060405180910390a16113e2565b7f46cb989ef9cef13e930e3b7f286225a086e716a90d63e0b7da85d310a9db0c9a6040518080602001828103825260358152602001807f4f7261636c697a65207175657279207761732073656e742c207374616e64696e81526020017f6720627920666f722074686520616e737765722e2e000000000000000000000081525060400191505060405180910390a1611385603c6040805190810160405280600381526020017f55524c000000000000000000000000000000000000000000000000000000000081525084611948565b90503360086000836000191660001916815260200190815260200160002060006101000a81548173ffffffffffffffffffffffffffffffffffffffff021916908373ffffffffffffffffffffffffffffffffffffffff1602179055505b50505050565b6000806000809054906101000a900473ffffffffffffffffffffffffffffffffffffffff1673ffffffffffffffffffffffffffffffffffffffff161480611458575060006114566000809054906101000a900473ffffffffffffffffffffffffffffffffffffffff16611d8b565b145b15611469576114676000611d96565b505b6000809054906101000a900473ffffffffffffffffffffffffffffffffffffffff1673ffffffffffffffffffffffffffffffffffffffff166338cc48316000604051602001526040518163ffffffff167c0100000000000000000000000000000000000000000000000000000000028152600401602060405180830381600087803b15156114f657600080fd5b6102c65a03f1151561150757600080fd5b50505060405180519050600160006101000a81548173ffffffffffffffffffffffffffffffffffffffff021916908373ffffffffffffffffffffffffffffffffffffffff160217905550600160009054906101000a900473ffffffffffffffffffffffffffffffffffffffff1673ffffffffffffffffffffffffffffffffffffffff1663c281d19e6000604051602001526040518163ffffffff167c0100000000000000000000000000000000000000000000000000000000028152600401602060405180830381600087803b15156115df57600080fd5b6102c65a03f115156115f057600080fd5b50505060405180519050905090565b600061160c826000612227565b9050919050565b61161b6126d3565b600060208301905060408051908101604052808451815260200182815250915050919050565b6116496126bf565b6116516126bf565b6000836000015185600001510160405180591061166b5750595b9080825280601f01601f1916602001820160405250915060208201905061169b8186602001518760000151612521565b6116b48560000151820185602001518660000151612521565b819250505092915050565b6000806000809054906101000a900473ffffffffffffffffffffffffffffffffffffffff1673ffffffffffffffffffffffffffffffffffffffff16148061172f5750600061172d6000809054906101000a900473ffffffffffffffffffffffffffffffffffffffff16611d8b565b145b156117405761173e6000611d96565b505b6000809054906101000a900473ffffffffffffffffffffffffffffffffffffffff1673ffffffffffffffffffffffffffffffffffffffff166338cc48316000604051602001526040518163ffffffff167c0100000000000000000000000000000000000000000000000000000000028152600401602060405180830381600087803b15156117cd57600080fd5b6102c65a03f115156117de57600080fd5b50505060405180519050600160006101000a81548173ffffffffffffffffffffffffffffffffffffffff021916908373ffffffffffffffffffffffffffffffffffffffff160217905550600160009054906101000a900473ffffffffffffffffffffffffffffffffffffffff1673ffffffffffffffffffffffffffffffffffffffff1663524f3889836000604051602001526040518263ffffffff167c01000000000000000000000000000000000000000000000000000000000281526004018080602001828103825283818151815260200191508051906020019080838360005b838110156118db5780820151818401526020810190506118c0565b50505050905090810190601f1680156119085780820380516001836020036101000a031916815260200191505b5092505050602060405180830381600087803b151561192657600080fd5b6102c65a03f1151561193757600080fd5b505050604051805190509050919050565b60008060008060009054906101000a900473ffffffffffffffffffffffffffffffffffffffff1673ffffffffffffffffffffffffffffffffffffffff1614806119ba575060006119b86000809054906101000a900473ffffffffffffffffffffffffffffffffffffffff16611d8b565b145b156119cb576119c96000611d96565b505b6000809054906101000a900473ffffffffffffffffffffffffffffffffffffffff1673ffffffffffffffffffffffffffffffffffffffff166338cc48316000604051602001526040518163ffffffff167c0100000000000000000000000000000000000000000000000000000000028152600401602060405180830381600087803b1515611a5857600080fd5b6102c65a03f11515611a6957600080fd5b50505060405180519050600160006101000a81548173ffffffffffffffffffffffffffffffffffffffff021916908373ffffffffffffffffffffffffffffffffffffffff160217905550600160009054906101000a900473ffffffffffffffffffffffffffffffffffffffff1673ffffffffffffffffffffffffffffffffffffffff1663524f3889856000604051602001526040518263ffffffff167c01000000000000000000000000000000000000000000000000000000000281526004018080602001828103825283818151815260200191508051906020019080838360005b83811015611b66578082015181840152602081019050611b4b565b50505050905090810190601f168015611b935780820380516001836020036101000a031916815260200191505b5092505050602060405180830381600087803b1515611bb157600080fd5b6102c65a03f11515611bc257600080fd5b50505060405180519050905062030d403a02670de0b6b3a764000001811115611bf15760006001029150611d83565b600160009054906101000a900473ffffffffffffffffffffffffffffffffffffffff1673ffffffffffffffffffffffffffffffffffffffff1663adf59f99828787876000604051602001526040518563ffffffff167c0100000000000000000000000000000000000000000000000000000000028152600401808481526020018060200180602001838103835285818151815260200191508051906020019080838360005b83811015611cb1578082015181840152602081019050611c96565b50505050905090810190601f168015611cde5780820380516001836020036101000a031916815260200191505b50838103825284818151815260200191508051906020019080838360005b83811015611d17578082015181840152602081019050611cfc565b50505050905090810190601f168015611d445780820380516001836020036101000a031916815260200191505b50955050505050506020604051808303818588803b1515611d6457600080fd5b6125ee5a03f11515611d7557600080fd5b505050506040518051905091505b509392505050565b6000813b9050919050565b600080611db6731d3b2638a7cc9f2cb3d298a3da7a90b67e5506ed611d8b565b1115611e5757731d3b2638a7cc9f2cb3d298a3da7a90b67e5506ed6000806101000a81548173ffffffffffffffffffffffffffffffffffffffff021916908373ffffffffffffffffffffffffffffffffffffffff160217905550611e4e6040805190810160405280600b81526020017f6574685f6d61696e6e657400000000000000000000000000000000000000000081525061256c565b60019050612222565b6000611e7673c03a2615d5efaf5f49f60b7bb6583eaec212fdf1611d8b565b1115611f175773c03a2615d5efaf5f49f60b7bb6583eaec212fdf16000806101000a81548173ffffffffffffffffffffffffffffffffffffffff021916908373ffffffffffffffffffffffffffffffffffffffff160217905550611f0e6040805190810160405280600c81526020017f6574685f726f707374656e33000000000000000000000000000000000000000081525061256c565b60019050612222565b6000611f3673b7a07bcf2ba2f2703b24c0691b5278999c59ac7e611d8b565b1115611fd75773b7a07bcf2ba2f2703b24c0691b5278999c59ac7e6000806101000a81548173ffffffffffffffffffffffffffffffffffffffff021916908373ffffffffffffffffffffffffffffffffffffffff160217905550611fce6040805190810160405280600981526020017f6574685f6b6f76616e000000000000000000000000000000000000000000000081525061256c565b60019050612222565b6000611ff673146500cfd35b22e4a392fe0adc06de1a1368ed48611d8b565b11156120975773146500cfd35b22e4a392fe0adc06de1a1368ed486000806101000a81548173ffffffffffffffffffffffffffffffffffffffff021916908373ffffffffffffffffffffffffffffffffffffffff16021790555061208e6040805190810160405280600b81526020017f6574685f72696e6b65627900000000000000000000000000000000000000000081525061256c565b60019050612222565b60006120b6736f485c8bf6fc43ea212e93bbf8ce046c7f1cb475611d8b565b111561211957736f485c8bf6fc43ea212e93bbf8ce046c7f1cb4756000806101000a81548173ffffffffffffffffffffffffffffffffffffffff021916908373ffffffffffffffffffffffffffffffffffffffff16021790555060019050612222565b60006121387320e12a1f859b3feae5fb2a0a32c18f5a65555bbf611d8b565b111561219b577320e12a1f859b3feae5fb2a0a32c18f5a65555bbf6000806101000a81548173ffffffffffffffffffffffffffffffffffffffff021916908373ffffffffffffffffffffffffffffffffffffffff16021790555060019050612222565b60006121ba7351efaf4c8b3c9afbd5ab9f4bbc82784ab6ef8faa611d8b565b111561221d577351efaf4c8b3c9afbd5ab9f4bbc82784ab6ef8faa6000806101000a81548173ffffffffffffffffffffffffffffffffffffffff021916908373ffffffffffffffffffffffffffffffffffffffff16021790555060019050612222565b600090505b919050565b60006122316126ed565b60008060008693506000925060009150600090505b83518110156125025760307f010000000000000000000000000000000000000000000000000000000000000002848281518110151561228157fe5b9060200101517f010000000000000000000000000000000000000000000000000000000000000090047f0100000000000000000000000000000000000000000000000000000000000000027effffffffffffffffffffffffffffffffffffffffffffffffffffffffffffff191610158015612399575060397f010000000000000000000000000000000000000000000000000000000000000002848281518110151561232957fe5b9060200101517f010000000000000000000000000000000000000000000000000000000000000090047f0100000000000000000000000000000000000000000000000000000000000000027effffffffffffffffffffffffffffffffffffffffffffffffffffffffffffff191611155b1561244a5781156123bc5760008614156123b257612502565b8580600190039650505b600a83029250603084828151811015156123d257fe5b9060200101517f010000000000000000000000000000000000000000000000000000000000000090047f0100000000000000000000000000000000000000000000000000000000000000027f0100000000000000000000000000000000000000000000000000000000000000900403830192506124f5565b602e7f010000000000000000000000000000000000000000000000000000000000000002848281518110151561247c57fe5b9060200101517f010000000000000000000000000000000000000000000000000000000000000090047f0100000000000000000000000000000000000000000000000000000000000000027effffffffffffffffffffffffffffffffffffffffffffffffffffffffffffff191614156124f457600191505b5b8080600101915050612246565b60008611156125145785600a0a830292505b8294505050505092915050565b60005b6020821015156125495782518452602084019350602083019250602082039150612524565b6001826020036101000a0390508019835116818551168181178652505050505050565b8060029080519060200190612582929190612586565b5050565b828054600181600116156101000203166002900490600052602060002090601f016020900481019282601f106125c757805160ff19168380011785556125f5565b828001600101855582156125f5579182015b828111156125f45782518255916020019190600101906125d9565b5b5090506126029190612701565b5090565b815481835581811511612633576003028160030283600052602060002091820191016126329190612726565b5b505050565b828054600181600116156101000203166002900490600052602060002090601f016020900481019282601f1061267157805485556126ae565b828001600101855582156126ae57600052602060002091601f016020900482015b828111156126ad578254825591600101919060010190612692565b5b5090506126bb9190612701565b5090565b602060405190810160405280600081525090565b604080519081016040528060008152602001600081525090565b602060405190810160405280600081525090565b61272391905b8082111561271f576000816000905550600101612707565b5090565b90565b61278191905b8082111561277d57600080820160006101000a81549073ffffffffffffffffffffffffffffffffffffffff021916905560018201600090556002820160006127749190612784565b5060030161272c565b5090565b90565b50805460018160011615610100020316600290046000825580601f106127aa57506127c9565b601f0160209004906000526020600020908101906127c89190612701565b5b505600a165627a7a7230582087b033697ccd99c2c0afa7a5ac1beac25dff76cb4f28f9ada7792975a5263bb80029",
  "source": "pragma solidity ^0.4.2;\nimport \"oraclize/usingOraclize.sol\";\nimport \"./strings.sol\";\n\ncontract SocialIdentityLinker is usingOraclize {\n    using strings for *;\n    //state variables\n    address public owner;\n    uint256 public totalIdentities;\n\n    struct _struct {\n        address _address;\n        uint256 _amount;\n        string _description;\n    }\n\n    mapping (uint256 => address) public facebookIdentity;\n    mapping (bytes32 => address) requestMap;\n    \n    //Keeps track of index of individual request\n    mapping (address => uint256) public requestEthIndex;\n\n    //Keeps track of requestee account address and owed amount\n    mapping (address => _struct[]) public requestEthStruct;\n\n    //Keeps track of index of individual request havne't yet to be paid\n    mapping (address => uint256) public payEthIndex;\n\n    //Keeps track of requster account address and owed amount\n    mapping (address => _struct[]) public payEthStruct;\n\n    modifier checkOwner() {require(owner == msg.sender); _ ;}\n\n    //events\n    event EventSetIdentity(uint256 facebookId, address addr);\n    event newOraclizeQuery(string description);\n    event Hello(string message);\n\n    //constructor\n    function SocialIdentityLinker() public {\n        owner = msg.sender;\n        OAR = OraclizeAddrResolverI(0x6f485C8BF6fc43eA212E93BBF8ce046C7f1cb475);\n        totalIdentities = 0;\n        Hello(\"Hello, World!\");\n    }\n\n    //core functions\n    function __callback(bytes32 myid, string result) public {\n        require(msg.sender == oraclize_cbAddress());\n        require(requestMap[myid] != 0x0);\n\n        uint256 facebookId = parseInt(result);\n\n        // look up correct address from mapping\n        // this operation can create new or overwrite previous data\n        address sender = requestMap[myid];\n        facebookIdentity[facebookId] = sender;\n        delete requestMap[myid];\n\n        //call event\n        EventSetIdentity(facebookId, sender);\n\n        totalIdentities++;\n    }\n\n    function requestEth(address _requestee,\n                        uint _amount,\n                        string _description) public\n    {\n\n        _struct s;\n        s._address = _requestee;\n        s._amount = _amount;\n        s._description = _description;\n\n        requestEthStruct[msg.sender].push(s);\n\n        s._address = msg.sender;\n        payEthStruct[_requestee].push(s);\n\n        //Increase both indexes by one\n        requestEthIndex[msg.sender]++;\n        payEthIndex[_requestee]++;\n    }\n\n    function payEth(uint id) \n    public payable \n    {\n        address payTo = payEthStruct[msg.sender][id]._address;\n        //Verify transaction amount is whole\n        require (payEthStruct[msg.sender][id]._amount==msg.value);\n        //Verify transaction sender is correct\n        require (requestEthStruct[payTo][id]._address==msg.sender);\n\n\n        payTo.transfer(msg.value);\n\n        //Reset amount to 0\n        requestEthStruct[payTo][id]._amount = 0;\n        payEthStruct[msg.sender][id]._amount = 0;\n    }\n\n    function setIdentity(\n        uint256 facebookId,\n        string facebookAccessToken\n    ) payable public\n    {\n        facebookIdentity[facebookId] = msg.sender;\n\n        var fbValidationURL = \"json(https://graph.facebook.com/me?fields=id&access_token=\".toSlice().concat(facebookAccessToken.toSlice());\n        fbValidationURL = fbValidationURL.toSlice().concat(\").id\".toSlice());\n        Hello(fbValidationURL);\n\n        if (oraclize_getPrice(\"URL\") > this.balance) {\n            newOraclizeQuery(\"Oraclize query was NOT sent, please add some ETH to cover for the query fee\");\n        } else {\n            newOraclizeQuery(\"Oraclize query was sent, standing by for the answer..\");\n            // map sender to query ID so we can look it up when the callback returns\n            bytes32 queryId = oraclize_query(60, \"URL\", fbValidationURL);\n            requestMap[queryId] = msg.sender;\n        }\n    }\n}\n",
  "sourcePath": "/Users/terencetsao/ethereum-social-identity/contracts/SocialIdentityLinker.sol",
  "compiler": {
    "name": "solc",
    "version": "0.4.18+commit.9cf6e910.Emscripten.clang"
  },
  "schemaVersion": "1.0.1",
  "updatedAt": "2017-12-26T23:23:04.977Z"
}